{
  "_format": "hh-sol-artifact-1",
  "contractName": "Marketplace",
  "sourceName": "src/backend/contracts/Marketplace.sol",
  "abi": [
    {
      "inputs": [
        {
          "internalType": "uint256",
          "name": "_feePercent",
          "type": "uint256"
        }
      ],
      "stateMutability": "nonpayable",
      "type": "constructor"
    },
    {
      "anonymous": false,
      "inputs": [
        {
          "indexed": false,
          "internalType": "uint256",
          "name": "itemId",
          "type": "uint256"
        },
        {
          "indexed": true,
          "internalType": "address",
          "name": "nft",
          "type": "address"
        },
        {
          "indexed": false,
          "internalType": "uint256",
          "name": "tokenId",
          "type": "uint256"
        },
        {
          "indexed": false,
          "internalType": "uint256",
          "name": "price",
          "type": "uint256"
        },
        {
          "indexed": true,
          "internalType": "address",
          "name": "seller",
          "type": "address"
        },
        {
          "indexed": true,
          "internalType": "address",
          "name": "buyer",
          "type": "address"
        }
      ],
      "name": "Bought",
      "type": "event"
    },
    {
      "anonymous": false,
      "inputs": [
        {
          "indexed": false,
          "internalType": "uint256",
          "name": "itemId",
          "type": "uint256"
        },
        {
          "indexed": true,
          "internalType": "address",
          "name": "nft",
          "type": "address"
        },
        {
          "indexed": false,
          "internalType": "uint256",
          "name": "tokenId",
          "type": "uint256"
        },
        {
          "indexed": false,
          "internalType": "uint256",
          "name": "price",
          "type": "uint256"
        },
        {
          "indexed": true,
          "internalType": "address",
          "name": "seller",
          "type": "address"
        }
      ],
      "name": "Offered",
      "type": "event"
    },
    {
      "inputs": [],
      "name": "feeAccount",
      "outputs": [
        {
          "internalType": "address payable",
          "name": "",
          "type": "address"
        }
      ],
      "stateMutability": "view",
      "type": "function"
    },
    {
      "inputs": [],
      "name": "feePercent",
      "outputs": [
        {
          "internalType": "uint256",
          "name": "",
          "type": "uint256"
        }
      ],
      "stateMutability": "view",
      "type": "function"
    },
    {
      "inputs": [
        {
          "internalType": "uint256",
          "name": "_itemId",
          "type": "uint256"
        }
      ],
      "name": "getTotalPrice",
      "outputs": [
        {
          "internalType": "uint256",
          "name": "",
          "type": "uint256"
        }
      ],
      "stateMutability": "view",
      "type": "function"
    },
    {
      "inputs": [],
      "name": "itemCount",
      "outputs": [
        {
          "internalType": "uint256",
          "name": "",
          "type": "uint256"
        }
      ],
      "stateMutability": "view",
      "type": "function"
    },
    {
      "inputs": [
        {
          "internalType": "uint256",
          "name": "",
          "type": "uint256"
        }
      ],
      "name": "items",
      "outputs": [
        {
          "internalType": "uint256",
          "name": "itemId",
          "type": "uint256"
        },
        {
          "internalType": "contract IERC721",
          "name": "nft",
          "type": "address"
        },
        {
          "internalType": "uint256",
          "name": "tokenId",
          "type": "uint256"
        },
        {
          "internalType": "uint256",
          "name": "price",
          "type": "uint256"
        },
        {
          "internalType": "address payable",
          "name": "seller",
          "type": "address"
        },
        {
          "internalType": "bool",
          "name": "sold",
          "type": "bool"
        }
      ],
      "stateMutability": "view",
      "type": "function"
    },
    {
      "inputs": [
        {
          "internalType": "contract IERC721",
          "name": "_nft",
          "type": "address"
        },
        {
          "internalType": "uint256",
          "name": "_tokenId",
          "type": "uint256"
        },
        {
          "internalType": "uint256",
          "name": "_price",
          "type": "uint256"
        }
      ],
      "name": "makeItem",
      "outputs": [],
      "stateMutability": "nonpayable",
      "type": "function"
    },
    {
      "inputs": [
        {
          "internalType": "uint256",
          "name": "_itemId",
          "type": "uint256"
        }
      ],
      "name": "purchaseItem",
      "outputs": [],
      "stateMutability": "payable",
      "type": "function"
    },
    {
      "inputs": [
        {
          "internalType": "uint256",
          "name": "_itemId",
          "type": "uint256"
        },
        {
          "internalType": "uint256",
          "name": "_new_price",
          "type": "uint256"
        }
      ],
      "name": "updateItem",
      "outputs": [],
      "stateMutability": "payable",
      "type": "function"
    }
  ],
  "bytecode": "0x60c060405234801561001057600080fd5b50604051620013e4380380620013e483398181016040528101906100349190610096565b60016000819055503373ffffffffffffffffffffffffffffffffffffffff1660808173ffffffffffffffffffffffffffffffffffffffff1660601b815250508060a08181525050506100e0565b600081519050610090816100c9565b92915050565b6000602082840312156100a857600080fd5b60006100b684828501610081565b91505092915050565b6000819050919050565b6100d2816100bf565b81146100dd57600080fd5b50565b60805160601c60a0516112cd620001176000396000818161020d015261040d0152600081816101e3015261063301526112cd6000f3fe60806040526004361061007b5760003560e01c8063bfb231d21161004e578063bfb231d21461011d578063ca7dd3751461015f578063d38ea5bf1461019c578063fa00afc7146101b85761007b565b806365e17c9d146100805780636bfb0d01146100ab5780637fd6f15c146100d65780639b6df3ed14610101575b600080fd5b34801561008c57600080fd5b506100956101e1565b6040516100a29190610d05565b60405180910390f35b3480156100b757600080fd5b506100c0610205565b6040516100cd9190610e17565b60405180910390f35b3480156100e257600080fd5b506100eb61020b565b6040516100f89190610e17565b60405180910390f35b61011b60048036038101906101169190610bac565b61022f565b005b34801561012957600080fd5b50610144600480360381019061013f9190610b83565b61037e565b60405161015696959493929190610e32565b60405180910390f35b34801561016b57600080fd5b5061018660048036038101906101819190610b83565b610407565b6040516101939190610e17565b60405180910390f35b6101b660048036038101906101b19190610b83565b61046a565b005b3480156101c457600080fd5b506101df60048036038101906101da9190610b34565b610838565b005b7f000000000000000000000000000000000000000000000000000000000000000081565b60015481565b7f000000000000000000000000000000000000000000000000000000000000000081565b60026000541415610275576040517f08c379a000000000000000000000000000000000000000000000000000000000815260040161026c90610df7565b60405180910390fd5b6002600081905550600081116102c0576040517f08c379a00000000000000000000000000000000000000000000000000000000081526004016102b790610dd7565b60405180910390fd5b60006002600084815260200190815260200160002090508181600301819055503373ffffffffffffffffffffffffffffffffffffffff168160010160009054906101000a900473ffffffffffffffffffffffffffffffffffffffff1673ffffffffffffffffffffffffffffffffffffffff167f655a0cf9c8db81512be9a76dc1c5ae5380b8816ce6ad659cd61b715e2999d59a8584600201548660405161036993929190610e93565b60405180910390a35060016000819055505050565b60026020528060005260406000206000915090508060000154908060010160009054906101000a900473ffffffffffffffffffffffffffffffffffffffff16908060020154908060030154908060040160009054906101000a900473ffffffffffffffffffffffffffffffffffffffff16908060040160149054906101000a900460ff16905086565b600060647f000000000000000000000000000000000000000000000000000000000000000060646104389190610edb565b60026000858152602001908152602001600020600301546104599190610f62565b6104639190610f31565b9050919050565b600260005414156104b0576040517f08c379a00000000000000000000000000000000000000000000000000000000081526004016104a790610df7565b60405180910390fd5b600260008190555060006104c382610407565b905060006002600084815260200190815260200160002090506000831180156104ee57506001548311155b61052d576040517f08c379a000000000000000000000000000000000000000000000000000000000815260040161052490610db7565b60405180910390fd5b81341015610570576040517f08c379a000000000000000000000000000000000000000000000000000000000815260040161056790610d97565b60405180910390fd5b8060040160149054906101000a900460ff16156105c2576040517f08c379a00000000000000000000000000000000000000000000000000000000081526004016105b990610d57565b60405180910390fd5b8060040160009054906101000a900473ffffffffffffffffffffffffffffffffffffffff1673ffffffffffffffffffffffffffffffffffffffff166108fc82600301549081150290604051600060405180830381858888f19350505050158015610630573d6000803e3d6000fd5b507f000000000000000000000000000000000000000000000000000000000000000073ffffffffffffffffffffffffffffffffffffffff166108fc82600301548461067b9190610fbc565b9081150290604051600060405180830381858888f193505050501580156106a6573d6000803e3d6000fd5b5060018160040160146101000a81548160ff0219169083151502179055508060010160009054906101000a900473ffffffffffffffffffffffffffffffffffffffff1673ffffffffffffffffffffffffffffffffffffffff166323b872dd303384600201546040518463ffffffff1660e01b815260040161072993929190610d20565b600060405180830381600087803b15801561074357600080fd5b505af1158015610757573d6000803e3d6000fd5b505050503373ffffffffffffffffffffffffffffffffffffffff168160040160009054906101000a900473ffffffffffffffffffffffffffffffffffffffff1673ffffffffffffffffffffffffffffffffffffffff168260010160009054906101000a900473ffffffffffffffffffffffffffffffffffffffff1673ffffffffffffffffffffffffffffffffffffffff167f8b4c9c8a607d67b321582dd8461041b1dc2ceeca70c8b7f37f8e02095cf2e76d868560020154866003015460405161082393929190610e93565b60405180910390a45050600160008190555050565b6002600054141561087e576040517f08c379a000000000000000000000000000000000000000000000000000000000815260040161087590610df7565b60405180910390fd5b6002600081905550600081116108c9576040517f08c379a00000000000000000000000000000000000000000000000000000000081526004016108c090610d77565b60405180910390fd5b600160008154809291906108dc90611080565b91905055508273ffffffffffffffffffffffffffffffffffffffff166323b872dd3330856040518463ffffffff1660e01b815260040161091e93929190610d20565b600060405180830381600087803b15801561093857600080fd5b505af115801561094c573d6000803e3d6000fd5b505050506040518060c0016040528060015481526020018473ffffffffffffffffffffffffffffffffffffffff1681526020018381526020018281526020013373ffffffffffffffffffffffffffffffffffffffff168152602001600015158152506002600060015481526020019081526020016000206000820151816000015560208201518160010160006101000a81548173ffffffffffffffffffffffffffffffffffffffff021916908373ffffffffffffffffffffffffffffffffffffffff160217905550604082015181600201556060820151816003015560808201518160040160006101000a81548173ffffffffffffffffffffffffffffffffffffffff021916908373ffffffffffffffffffffffffffffffffffffffff16021790555060a08201518160040160146101000a81548160ff0219169083151502179055509050503373ffffffffffffffffffffffffffffffffffffffff168373ffffffffffffffffffffffffffffffffffffffff167f655a0cf9c8db81512be9a76dc1c5ae5380b8816ce6ad659cd61b715e2999d59a6001548585604051610af593929190610e93565b60405180910390a36001600081905550505050565b600081359050610b1981611269565b92915050565b600081359050610b2e81611280565b92915050565b600080600060608486031215610b4957600080fd5b6000610b5786828701610b0a565b9350506020610b6886828701610b1f565b9250506040610b7986828701610b1f565b9150509250925092565b600060208284031215610b9557600080fd5b6000610ba384828501610b1f565b91505092915050565b60008060408385031215610bbf57600080fd5b6000610bcd85828601610b1f565b9250506020610bde85828601610b1f565b9150509250929050565b610bf181611002565b82525050565b610c0081610ff0565b82525050565b610c0f81611014565b82525050565b610c1e8161105c565b82525050565b6000610c31601183610eca565b9150610c3c82611127565b602082019050919050565b6000610c54601f83610eca565b9150610c5f82611150565b602082019050919050565b6000610c77603383610eca565b9150610c8282611179565b604082019050919050565b6000610c9a601283610eca565b9150610ca5826111c8565b602082019050919050565b6000610cbd602383610eca565b9150610cc8826111f1565b604082019050919050565b6000610ce0601f83610eca565b9150610ceb82611240565b602082019050919050565b610cff81611052565b82525050565b6000602082019050610d1a6000830184610be8565b92915050565b6000606082019050610d356000830186610bf7565b610d426020830185610bf7565b610d4f6040830184610cf6565b949350505050565b60006020820190508181036000830152610d7081610c24565b9050919050565b60006020820190508181036000830152610d9081610c47565b9050919050565b60006020820190508181036000830152610db081610c6a565b9050919050565b60006020820190508181036000830152610dd081610c8d565b9050919050565b60006020820190508181036000830152610df081610cb0565b9050919050565b60006020820190508181036000830152610e1081610cd3565b9050919050565b6000602082019050610e2c6000830184610cf6565b92915050565b600060c082019050610e476000830189610cf6565b610e546020830188610c15565b610e616040830187610cf6565b610e6e6060830186610cf6565b610e7b6080830185610be8565b610e8860a0830184610c06565b979650505050505050565b6000606082019050610ea86000830186610cf6565b610eb56020830185610cf6565b610ec26040830184610cf6565b949350505050565b600082825260208201905092915050565b6000610ee682611052565b9150610ef183611052565b9250827fffffffffffffffffffffffffffffffffffffffffffffffffffffffffffffffff03821115610f2657610f256110c9565b5b828201905092915050565b6000610f3c82611052565b9150610f4783611052565b925082610f5757610f566110f8565b5b828204905092915050565b6000610f6d82611052565b9150610f7883611052565b9250817fffffffffffffffffffffffffffffffffffffffffffffffffffffffffffffffff0483118215151615610fb157610fb06110c9565b5b828202905092915050565b6000610fc782611052565b9150610fd283611052565b925082821015610fe557610fe46110c9565b5b828203905092915050565b6000610ffb82611032565b9050919050565b600061100d82611032565b9050919050565b60008115159050919050565b600061102b82610ff0565b9050919050565b600073ffffffffffffffffffffffffffffffffffffffff82169050919050565b6000819050919050565b60006110678261106e565b9050919050565b600061107982611032565b9050919050565b600061108b82611052565b91507fffffffffffffffffffffffffffffffffffffffffffffffffffffffffffffffff8214156110be576110bd6110c9565b5b600182019050919050565b7f4e487b7100000000000000000000000000000000000000000000000000000000600052601160045260246000fd5b7f4e487b7100000000000000000000000000000000000000000000000000000000600052601260045260246000fd5b7f6974656d20616c726561647920736f6c64000000000000000000000000000000600082015250565b7f5072696365206d7573742062652067726561746572207468616e207a65726f00600082015250565b7f6e6f7420656e6f75676820657468657220746f20636f766572206974656d207060008201527f7269636520616e64206d61726b65742066656500000000000000000000000000602082015250565b7f6974656d20646f65736e27742065786973740000000000000000000000000000600082015250565b7f4e6577207072696365206d7573742062652067726561746572207468616e207a60008201527f65726f0000000000000000000000000000000000000000000000000000000000602082015250565b7f5265656e7472616e637947756172643a207265656e7472616e742063616c6c00600082015250565b61127281611020565b811461127d57600080fd5b50565b61128981611052565b811461129457600080fd5b5056fea2646970667358221220b46eaf186c6ae38f85248f79b066f55d53e1e7ad2ab955018637e25510d598ef64736f6c63430008040033",
  "linkReferences": {},
  "deployedLinkReferences": {}
}